:100000000C9434000C943E000C943E000C943E0082
:100010000C943E000C943E000C943E000C943E0068
:100020000C943E000C943E000C943E000C943E0058
:100030000C943E000C943E000C943E000C943E0048
:100040000C943E000C943E000C943E000C943E0038
:100050000C943E000C943E000C943E000C943E0028
:100060000C943E000C943E0011241FBECFEFD8E04C
:10007000DEBFCDBF0E9460000C94D2010C94000042
:100080005D9885E08A95F1F760E070E080E090E0AF
:100090005E9A660F771F4C9961605E980196803179
:1000A0009105B1F75D9A6951734080E090E00E943C
:1000B000B9002CEE31E548EB5DE30E94FA000895AB
:1000C000BF92CF92DF92EF92FF920F931F93DF9335
:1000D000CF9300D000D0CDB7DEB78AB1846E8AB995
:1000E0001092C50087E68093C40088E08093C10029
:1000F00045E0B42E6E010894C11CD11C35E0E32EFE
:10010000F12CEC0EFD1E00E911E00E9440009B0165
:10011000AC0169837A838B839C835A988B2D8A9553
:10012000F1F7F60107C08091C00085FFFCCF8191F7
:100130008093C600EE15FF05B1F75A9ACA01B901BE
:1001400020E030E040EA51E40E94F600181644F442
:100150005F9A88EE93E0F8013197F1F70197D9F7AC
:100160005F9880ED97E0F8013197F1F7019769F218
:10017000FACFE89409C097FB3EF49095809570956E
:1001800061957F4F8F4F9F4F9923A9F0F92F96E9E3
:10019000BB279395F695879577956795B795F11158
:1001A000F8CFFAF4BB0F11F460FF1BC06F5F7F4FF5
:1001B0008F4F9F4F16C0882311F096E911C0772307
:1001C00021F09EE8872F762F05C0662371F096E810
:1001D000862F70E060E02AF09A95660F771F881FDF
:1001E000DAF7880F9695879597F9089566D008F401
:1001F0008FEF08950BD09CC08DD028F092D018F0CE
:10020000952309F07EC083C01124C6C0A2D0A0F3FC
:10021000959FD1F3950F50E0551F629FF001729F9B
:10022000BB27F00DB11D639FAA27F00DB11DAA1FBA
:10023000649F6627B00DA11D661F829F2227B00D07
:10024000A11D621F739FB00DA11D621F839FA00D92
:10025000611D221F749F3327A00D611D231F849FE2
:10026000600D211D822F762F6A2F11249F57504039
:100270008AF0E1F088234AF0EE0FFF1FBB1F661FD4
:10028000771F881F91505040A9F79E3F510570F08D
:1002900038C082C05F3FECF3983EDCF386957795DB
:1002A0006795B795F795E7959F5FC1F7FE2B880F88
:1002B000911D9695879597F90895990F0008550F08
:1002C000AA0BE0E8FEEF16161706E807F907C0F0DC
:1002D00012161306E407F50798F0621B730B840BE4
:1002E000950B39F40A2661F0232B242B252B21F4BE
:1002F00008950A2609F4A140A6958FEF811D811D5E
:10030000089597F99F6780E870E060E008959FEF97
:1003100080EC089500240A9416161706180609069C
:10032000089500240A94121613061406050608956B
:10033000092E0394000C11F4882352F0BB0F40F4F3
:10034000BF2B11F460FF04C06F5F7F4F8F4F9F4F33
:10035000089557FD9058440F551F59F05F3F71F0B5
:100360004795880F97FB991F61F09F3F79F087951C
:100370000895121613061406551FF2CF4695F1DFA5
:1003800008C0161617061806991FF1CF8695710535
:10039000610508940895E894BB2766277727CB0169
:0803A00097F90895F894FFCFCE
:00000001FF
