:100000000C9462000C948A000C948A000C948A0070
:100010000C948A000C948A000C948A000C948A0038
:100020000C948A000C948A000C948A000C948A0028
:100030000C948A000C948A000C948A000C948A0018
:100040000C9466020C948A000C94D6020C94B002B4
:100050000C948A000C948A000C948A000C948A00F8
:100060000C948A000C948A000000000023002600F3
:10007000290000000008000201000003040700003E
:1000800000000000000000000000250028002B00F8
:1000900000000000240027002A00040404040404D3
:1000A0000404020202020202030303030303010227
:1000B00004081020408001020408102001020408F6
:1000C00010201F0411241FBECFEFD8E0DEBFCDBF2C
:1000D00011E0A0E0B1E0E0EFFAE002C005900D927F
:1000E000A231B107D9F721E0A2E1B1E001C01D9230
:1000F000A83BB207E1F710E0C2E6D0E004C02197C8
:10010000FE010E947005C136D107C9F70E9408039D
:100110000C9476050C94000090E0FC01E255FF4F32
:10012000249186569F4FFC018491882399F090E09A
:10013000880F991FFC01E057FF4FA591B491FC0176
:10014000EA57FF4F859194918FB7F894EC91E22B89
:10015000EC938FBF0895833081F028F4813099F0BB
:100160008230A9F008958730A9F08830C9F0843032
:10017000B1F4809180008F7D03C0809180008F77E3
:1001800080938000089584B58F7784BD089584B5E9
:100190008F7DFBCF8091B0008F778093B000089562
:1001A0008091B0008F7DF9CF1F93CF93DF93282FDD
:1001B00030E0F901EE58FF4F8491F901E255FF4F0D
:1001C000D491F901E656FF4FC491CC23A9F0162F24
:1001D00081110E94AB00EC2FF0E0EE0FFF1FEA57F9
:1001E000FF4FA591B4918FB7F894EC91111108C00D
:1001F000D095DE23DC938FBFDF91CF911F910895BF
:10020000DE2BF8CF3FB7F8948091B4019091B501FF
:10021000A091B601B091B70126B5A89B05C02F3FAC
:1002200019F00196A11DB11D3FBFBA2FA92F982F1C
:100230008827BC01CD01620F711D811D911D42E017
:10024000660F771F881F991F4A95D1F708958F92DF
:100250009F92AF92BF92CF92DF92EF92FF924B01AB
:100260005C010E9402016B017C010E9402016C1979
:100270007D098E099F09683E734081059105A8F3A9
:1002800021E0821A9108A108B10888EEC80E83E027
:10029000D81EE11CF11C81149104A104B10429F7BA
:1002A000FF90EF90DF90CF90BF90AF909F908F9096
:1002B0000895AF92BF92CF92DF92EF92FF920F9389
:1002C0001F93CF93DF936C017B018B01040F151FEC
:1002D000EB015E01AE18BF08C017D10759F0699154
:1002E000D601ED91FC910190F081E02DC6010995B8
:1002F000892B79F7C501DF91CF911F910F91FF9065
:10030000EF90DF90CF90BF90AF900895FC01538D98
:10031000448D252F30E0842F90E0821B930B5417DF
:1003200010F0CF96089501970895FC01918D828D6C
:10033000981761F0A28DAE0FBF2FB11D5D968C9105
:10034000928D9F5F9F73928F90E008958FEF9FEF44
:100350000895FC01918D828D981731F0828DE80F00
:10036000F11D858D90E008958FEF9FEF0895FC01BA
:10037000918D228D892F90E0805C9F4F821B910987
:100380008F739927089582E191E00E94B70121E0DF
:10039000892B09F420E0822F089580E090E0892BDA
:1003A00029F00E94C30181110C9400000895FC0102
:1003B000A48DA80FB92FB11DA35ABF4F2C91848DC6
:1003C00090E001968F739927848FA689B7892C9323
:1003D000A089B1898C91837080648C93938D848D76
:1003E000981306C00288F389E02D80818F7D808379
:1003F0000895EF92FF920F931F93CF93DF93EC0139
:1004000081E0888F9B8D8C8D98131AC0E889F989BB
:10041000808185FF15C09FB7F894EE89FF896083BE
:10042000E889F98980818370806480839FBF81E03F
:1004300090E0DF91CF911F910F91FF90EF90089581
:10044000F62E0B8D10E00F5F1F4F0F731127E02E5C
:100450008C8D8E110CC00FB607FCFACFE889F98994
:10046000808185FFF5CFCE010E94D701F1CFEB8DC2
:10047000EC0FFD2FF11DE35AFF4FF0829FB7F89468
:100480000B8FEA89FB8980818062CFCFCF93DF9386
:10049000EC01888D8823B9F0AA89BB89E889F9899C
:1004A0008C9185FD03C0808186FD0DC00FB607FCD1
:1004B000F7CF8C9185FFF2CF808185FFEDCFCE0104
:1004C0000E94D701E9CFDF91CF9108951F920F923B
:1004D0000FB60F9211242F933F938F939F93AF9357
:1004E000BF938091B0019091B101A091B201B09100
:1004F000B3013091AF0123E0230F2D3758F501965A
:10050000A11DB11D2093AF018093B0019093B10163
:10051000A093B201B093B3018091B4019091B50161
:10052000A091B601B091B7010196A11DB11D8093B4
:10053000B4019093B501A093B601B093B701BF91F8
:10054000AF919F918F913F912F910F900FBE0F9080
:100550001F90189526E8230F0296A11DB11DD2CF3A
:100560001F920F920FB60F9211242F933F934F9328
:100570005F936F937F938F939F93AF93BF93EF930B
:10058000FF9382E191E00E94D701FF91EF91BF912B
:10059000AF919F918F917F916F915F914F913F911B
:1005A0002F910F900FBE0F901F9018951F920F92D2
:1005B0000FB60F9211242F938F939F93EF93FF9376
:1005C000E0912201F09123018081E0912801F091D6
:1005D000290182FD1BC0908180912B018F5F8F7359
:1005E00020912C01821741F0E0912B01F0E0EE5EAA
:1005F000FE4F958F80932B01FF91EF919F918F91EB
:100600002F910F900FBE0F901F9018958081F4CFFF
:10061000CF93DF9300D000D0CDB7DEB7789484B508
:10062000826084BD84B5816084BD85B5826085BDEE
:1006300085B5816085BD80916E00816080936E007C
:10064000109281008091810082608093810080916E
:10065000810081608093810080918000816080931F
:1006600080008091B10084608093B1008091B000DF
:1006700081608093B00080917A00846080937A00DA
:1006800080917A00826080937A0080917A00816004
:1006900080937A0080917A00806880937A0010922B
:1006A000C100E0912201F091230182E08083E0917A
:1006B0001E01F0911F011082E0912001F0912101B3
:1006C0008FEC808310922A01E0912601F09127019E
:1006D00086E08083E0912401F09125018081806192
:1006E0008083E0912401F0912501808188608083DE
:1006F000E0912401F0912501808180688083E09160
:100700002401F091250180818F7D808382E00E9409
:100710008C0087E00E948C0085E00E948C0086E0BF
:100720000E948C0036E7632E30E0732E42EBC42E1D
:1007300040E0D42E5EE9A52E50E0B52E60E0862E76
:1007400060E0962E60E085E00E94D40061E070E0F9
:1007500080E090E00E94270120E1E22EF12C10E0E1
:1007600000E061E086E00E94D400000F111FF30159
:100770008491F6015490F5014490442079F0811160
:100780000E94AB00E42DF0E0EE0FFF1FE859FF4F91
:10079000A591B4918C91582209F0016060E086E047
:1007A0000E94D400F1E0EF1AF108D9F661E085E08B
:1007B0000E94D40009511340B80190E080E00E94EB
:1007C0004C0429EA3AE642E05DE30E948E04698324
:1007D0007A838B839C8360E082E00E94D40044E0B3
:1007E00050E0BE016F5F7F4F82E191E00E945901AE
:1007F00061E082E00E94D40020E030E040E252E478
:1008000069817A818B819C810E94890461E018163C
:100810000CF060E087E00E94D40068EC70E080E0BB
:1008200090E00E9427018114910409F48BCF0E946B
:10083000C301882309F486CF0E94000083CFE2E140
:10084000F1E01382128288EE93E0A0E0B0E08483AE
:100850009583A683B78384E091E09183808385ECC0
:1008600090E09587848784EC90E09787868780EC7A
:1008700090E0918B808B81EC90E0938B828B82EC6B
:1008800090E0958B848B86EC90E0978B868B118E15
:10089000128E138E148E0895E89409C097FB3EF4CF
:1008A00090958095709561957F4F8F4F9F4F9923BD
:1008B000A9F0F92F96E9BB279395F695879577953B
:1008C0006795B795F111F8CFFAF4BB0F11F460FFFB
:1008D0001BC06F5F7F4F8F4F9F4F16C0882311F053
:1008E00096E911C0772321F09EE8872F762F05C067
:1008F000662371F096E8862F70E060E02AF09A9502
:10090000660F771F881FDAF7880F9695879597F9F6
:1009100008950E94FB0408F48FEF08950E94A1043B
:100920000C9436050E94280538F00E942F0520F00F
:10093000952311F00C941F050C94250511240C949B
:100940006A050E94470570F3959FC1F3950F50E02B
:10095000551F629FF001729FBB27F00DB11D639F71
:10096000AA27F00DB11DAA1F649F6627B00DA11D17
:10097000661F829F2227B00DA11D621F739FB00DBD
:10098000A11D621F839FA00D611D221F749F33272D
:10099000A00D611D231F849F600D211D822F762FC6
:1009A0006A2F11249F5750409AF0F1F088234AF0A3
:1009B000EE0FFF1FBB1F661F771F881F915050400F
:1009C000A9F79E3F510580F00C941F050C946A0511
:1009D0005F3FE4F3983ED4F3869577956795B79596
:1009E000F795E7959F5FC1F7FE2B880F911D9695B0
:1009F000879597F90895990F0008550FAA0BE0E81D
:100A0000FEEF16161706E807F907C0F012161306D0
:100A1000E407F50798F0621B730B840B950B39F410
:100A20000A2661F0232B242B252B21F408950A2676
:100A300009F4A140A6958FEF811D811D089597F9B6
:100A40009F6780E870E060E008959FEF80EC089574
:100A500000240A941616170618060906089500249D
:100A60000A9412161306140605060895092E039417
:100A7000000C11F4882352F0BB0F40F4BF2B11F48B
:100A800060FF04C06F5F7F4F8F4F9F4F089557FDEA
:100A90009058440F551F59F05F3F71F04795880FEC
:100AA00097FB991F61F09F3F79F087950895121683
:100AB00013061406551FF2CF4695F1DF08C016162F
:100AC00017061806991FF1CF8695710561050894E0
:100AD0000895E894BB2766277727CB0197F90895F7
:100AE000EE0FFF1F0590F491E02D0994F894FFCFCD
:100AF00000000000F901590186014602B701950185
:020B0000A90149
:00000001FF
