:100000000C94DA000C9402010C9402010C9402018D
:100010000C9402010C9402010C9402010C94020154
:100020000C9402010C9402010C9402010C94020144
:100030000C9402010C9402010C9402010C94020134
:100040000C9437030C9402010C94A7030C948103C5
:100050000C9402010C9402010C9402010C94020114
:100060000C9402010C94020100407A10F35A00A093
:10007000724E18090010A5D4E80000E87648170071
:1000800000E40B54020000CA9A3B000000E1F505B1
:10009000000080969800000040420F000000A086FB
:1000A00001000000102700000000E803000000002D
:1000B0006400000000000A000000000001000000D1
:1000C00000002C76D888DC674F0823DFC1DFAE59EB
:1000D000E1B1B796E5E3E453C63AE651997696E87E
:1000E000E6C28426EB898C9B62ED407C6FFCEFBC02
:1000F0009C9F40F2BAA56FA5F490055A2AF75C932D
:100100006B6CF9676DC11BFCE0E40D47FEF520E662
:10011000B500D0ED902E0300943577050080841E45
:10012000080000204E0A000000C80C333333330FA0
:10013000986E12831141EF8D2114893BE65516CF3D
:10014000FEE6DB18D1844B381BF77C1D901DA4BB49
:10015000E424203284725E228100C9F124ECA1E5FE
:100160003D27000000080002010000030407000012
:1001700000000000000000000000250028002B0007
:1001800000000000240027002A00040404040404E2
:100190000404020202020202030303030303010236
:1001A0000408102040800102040810200102040805
:1001B00010208B0511241FBECFEFD8E0DEBFCDBFCE
:1001C00021E0ACE1B1E001C01D92A23CB207E1F731
:1001D00011E0A0E0B1E0E4EFF5E102C005900D927E
:1001E000AC31B107D9F710E0CAEDD0E004C02197D7
:1001F000FE010E944408C93DD107C9F70E94D903F6
:100200000C94F80A0C94000090E0FC01E256FE4FBA
:10021000249186579E4FFC018491882399F090E0A9
:10022000880F991FFC01E058FE4FA591B491FC0185
:10023000EA58FE4F859194918FB7F894EC91E22B98
:10024000EC938FBF089590E0FC01EE59FE4F24918E
:10025000FC01E256FE4F3491FC01E657FE4FE4915B
:10026000EE23C9F0222339F0233001F1A8F4213024
:1002700019F1223029F1F0E0EE0FFF1FEA58FE4F8E
:10028000A591B4918FB7F894EC91611126C0309587
:100290003E233C938FBF08952730A9F02830C9F042
:1002A000243049F7809180008F7D03C080918000C9
:1002B0008F7780938000DFCF84B58F7784BDDBCFCD
:1002C00084B58F7DFBCF8091B0008F778093B00095
:1002D000D2CF8091B0008F7DF9CF3E2BDACF3FB7E0
:1002E000F8948091BE019091BF01A091C001B0919E
:1002F000C10126B5A89B05C02F3F19F00196A11D8D
:10030000B11D3FBFBA2FA92F982F8827BC01CD015F
:10031000620F711D811D911D42E0660F771F881FBE
:10032000991F4A95D1F708958F929F92AF92BF92ED
:10033000CF92DF92EF92FF924B015C010E946F011E
:100340006B017C010E946F016C197D098E099F0968
:10035000683E734081059105A8F321E0821A910857
:10036000A108B10888EEC80E83E0D81EE11CF11C7C
:1003700081149104A104B10429F7FF90EF90DF905C
:10038000CF90BF90AF909F908F900895AF92BF9203
:10039000CF92DF92EF92FF920F931F93CF93DF9351
:1003A0006C017B018B01040F151FEB015E01AE1880
:1003B000BF08C017D10759F06991D601ED91FC91A2
:1003C0000190F081E02DC6010995892B79F7C501CF
:1003D000DF91CF911F910F91FF90EF90DF90CF9021
:1003E000BF90AF900895FC01538D448D252F30E0D0
:1003F000842F90E0821B930B541710F0CF96089532
:1004000001970895FC01918D828D981761F0A28D5E
:10041000AE0FBF2FB11D5D968C91928D9F5F9F7324
:10042000928F90E008958FEF9FEF0895FC01918DDA
:10043000828D981731F0828DE80FF11D858D90E047
:1004400008958FEF9FEF0895FC01918D228D892FE4
:1004500090E0805C9F4F821B91098F7399270895CC
:100460008CE191E00E94240221E0892B09F420E034
:10047000822F089580E090E0892B29F00E943002BD
:1004800081110C9400000895FC01A48DA80FB92FD0
:10049000B11DA35ABF4F2C91848D90E001968F73AC
:1004A0009927848FA689B7892C93A089B1898C91CB
:1004B000837080648C93938D848D981306C002881A
:1004C000F389E02D80818F7D80830895EF92FF92E4
:1004D0000F931F93CF93DF93EC0181E0888F9B8D67
:1004E0008C8D98131AC0E889F989808185FF15C021
:1004F0009FB7F894EE89FF896083E889F989808144
:100500008370806480839FBF81E090E0DF91CF9112
:100510001F910F91FF90EF900895F62E0B8D10E034
:100520000F5F1F4F0F731127E02E8C8D8E110CC0A3
:100530000FB607FCFACFE889F989808185FFF5CFEE
:10054000CE010E944402F1CFEB8DEC0FFD2FF11D87
:10055000E35AFF4FF0829FB7F8940B8FEA89FB892B
:1005600080818062CFCFCF93DF93EC01888D882389
:10057000B9F0AA89BB89E889F9898C9185FD03C006
:10058000808186FD0DC00FB607FCF7CF8C9185FFEB
:10059000F2CF808185FFEDCFCE010E944402E9CFEA
:1005A000DF91CF910895FF920F931F93CF93DF9325
:1005B000F82E60E08CE00E942301CF2DD0E0BE0138
:1005C00084E0759567958A95E1F7617085E00E94F2
:1005D0002301BE0195E0759567959A95E1F784E052
:1005E0000E94230160E083E00E94230160E082E03A
:1005F0000E94230161E089E00E94230160E089E01C
:100600000E9423010BE811E0C8010197F1F76F2D5B
:10061000617085E00E942301BE0175956795617048
:1006200084E00E942301BE017595679575956795D5
:10063000617083E00E94230143E0D595C7954A95F8
:10064000E1F76C2F617082E00E94230161E089E094
:100650000E94230160E089E00E942301C801019704
:10066000F1F7DF91CF911F910F91FF9008951F92A5
:100670000F920FB60F9211242F933F938F939F9356
:10068000AF93BF938091BA019091BB01A091BC013F
:10069000B091BD013091B90123E0230F2D3758F5FA
:1006A0000196A11DB11D2093B9018093BA019093C9
:1006B000BB01A093BC01B093BD018091BE0190919C
:1006C000BF01A091C001B091C1010196A11DB11D52
:1006D0008093BE019093BF01A093C001B093C1016C
:1006E000BF91AF919F918F913F912F910F900FBE2E
:1006F0000F901F90189526E8230F0296A11DB11D9B
:10070000D2CF1F920F920FB60F9211242F933F93C7
:100710004F935F936F937F938F939F93AF93BF9309
:10072000EF93FF938CE191E00E944402FF91EF91DF
:10073000BF91AF919F918F917F916F915F914F91F9
:100740003F912F910F900FBE0F901F9018951F9201
:100750000F920FB60F9211242F938F939F93EF93C5
:10076000FF93E0912C01F0912D018081E091320105
:10077000F091330182FD1BC09081809135018F5F24
:100780008F7320913601821741F0E0913501F0E03E
:10079000E45EFE4F958F80933501FF91EF919F911D
:1007A0008F912F910F900FBE0F901F901895808101
:1007B000F4CFCF93DF93CDB7DEB76E970FB6F89433
:1007C000DEBF0FBECDBF789484B5826084BD84B592
:1007D000816084BD85B5826085BD85B5816085BD3C
:1007E00080916E00816080936E00109281008091F4
:1007F000810082608093810080918100816080937C
:100800008100809180008160809380008091B100A0
:1008100084608093B1008091B00081608093B000CB
:1008200080917A00846080937A0080917A0082605F
:1008300080937A0080917A00816080937A00809121
:100840007A00806880937A001092C100E0912C01B8
:10085000F0912D0182E08083E0912801F09129013F
:100860001082E0912A01F0912B018FEC808310928D
:100870003401E0913001F091310186E08083E09114
:100880002E01F0912F01808180618083E0912E0103
:10089000F0912F01808188608083E0912E01F0919A
:1008A0002F01808180688083E0912E01F0912F01DB
:1008B00080818F7D80838BE00E94040161E08BE06A
:1008C0000E94230168EC70E080E090E00E949401B7
:1008D0003E012FE1620E711C7E0185E1E80EF11CE4
:1008E00064E1262EFE0131966F017BE8A72EBB2422
:1008F000B394E0E04E2EE0E05E2E60E08BE00E94DC
:1009000023018E01055E1F4F2FB7F8948091BA0125
:100910009091BB01A091BC01B091BD012FBF80930C
:10092000240190932501A0932601B09327018CE127
:1009300091E00E94020297FFE6C02FB7F8948091E1
:10094000BA019091BB01A091BC01B091BD012FBF34
:100950004091240150912501609126017091270159
:10096000841B950BA60BB70B4091200150912101E0
:10097000609122017091230184179507A607B7079C
:10098000B0F261E08BE00E9423018CE00E94040140
:1009900089E00E94040185E00E94040184E00E9435
:1009A000040183E00E94040182E00E9404016FE0E0
:1009B00070E080E090E00E94940183E30E94D30203
:1009C00082E30E94D30288E20E94D3028CE00E945C
:1009D000D30286E00E94D30281E00E94D30262E04B
:1009E00070E080E090E00E9494016B8D7C8D8D8D95
:1009F0009E8D870122E044E00E94B805FF92EF92AD
:100A000082E191E09F938F931F922F92DF92CF927A
:100A10000E944A0846010FB6F894DEBF0FBECDBF54
:100A2000F40131904F01332009F461C061E08CE0A2
:100A30000E942301032D10E0B80184E075956795AD
:100A40008A95E1F7617085E00E942301B80195E085
:100A5000759567959A95E1F7617084E00E9423018E
:100A6000B80126E0759567952A95E1F7617083E0F6
:100A70000E942301632D661F6627661F82E00E9485
:100A8000230161E089E00E94230160E089E00E9487
:100A90002301C5010197F1F7632D617085E00E9484
:100AA0002301B80175956795617084E00E94230168
:100AB000B8017595679575956795617083E00E949B
:100AC000230153E0159507955A95E1F7602F617062
:100AD00082E00E94230161E089E00E94230160E03E
:100AE00089E00E942301C5010197F1F799CF4114D4
:100AF000510409F402CF0E943002882309F4FDCE8C
:100B00000E940000FACEF80181938F01E615F705E7
:100B100009F0FACE36CFECE1F1E01382128288EED2
:100B200093E0A0E0B0E084839583A683B78384E05C
:100B300091E09183808385EC90E09587848784ECB5
:100B400090E09787868780EC90E0918B808B81EC9A
:100B500090E0938B828B82EC90E0958B848B86EC7B
:100B600090E0978B868B118E128E138E148E0895C3
:100B7000EF920F931F93CF93DF93E80134E047FD8B
:100B800034E1042E000C550B57FF03C051954195DD
:100B90005109E32E022F242FAE010E94D605CE016B
:100BA000DF91CF911F910F91EF900895A9E0B0E0F0
:100BB000ECEDF5E00C9413086A01F22EB02E102F24
:100BC000FBE3AF2EA01608F41BE31F5F012F27E005
:100BD000AE014F5F5F4F0E943507BC018981982F9E
:100BE0009970913009F43FC09BE2E1FC04C09E2D56
:100BF0009170E0FC3AC05E2D5071E82FE87083FFE1
:100C000046C084E0911101C083E0EF2DE81B8F15F1
:100C100008F0E0E0D6018E2F20E2552351F1992310
:100C200029F0D6019C93C60101966C0196012D5FB7
:100C30003F4FE2FE24C08EE4D6018C9391E41196DE
:100C40009C93119712968C93D9018E2F90E281116B
:100C50001BC0E20FF32FF11D10828EEF9FEF29963C
:100C6000ECE00C942F089DE2C6CF90E2C4CF2D9308
:100C700081508111FCCFCE0ED11CE0E0D0CF8EE6AA
:100C8000D6018C9391E6DBCF9D938150E0CF482F26
:100C9000447082FF3DC084E0911101C083E08F1554
:100CA00010F4EF2DE81BD6018E2F20E2552309F119
:100CB000992329F0D6019C93C60101966C019601F7
:100CC0002D5F3F4FE2FE1BC089E4D6018C938EE47A
:100CD00011968C93119786E412968C93D9018E2FDE
:100CE00090E2882309F4B5CF9D938150FACF2D93DC
:100CF00081508111FCCFCE0ED11CE0E0D9CF89E626
:100D0000D6018C938EE611968C93119786E6E4CFEC
:100D10009B0177FF02C030E020E0A1E0B0E091113C
:100D200002C0B0E0A0E0F9013196AE0FBF1F8B2CDE
:100D3000912CBB2009F461C05401EFEFAE1ABE0A3A
:100D4000AA0DBB1DFA161B0619F014F04F2D4A1BF5
:100D5000511188C0E3FC59C07601A42FB0E2A11163
:100D60004FC0C40ED11C992309F45BC040E0D601EA
:100D70001196F60190836D01552309F448C0012FA7
:100D8000060F9A81582F507184FF03C0913309F4E4
:100D9000015010160CF047C0093008F008E0EEE2F0
:100DA000FE2E5B01A01AB1088501919481949108EF
:100DB0002F3F320729F4D601FC92F60131966F01DC
:100DC0006217730794F1021713077CF5DB01A21B6E
:100DD000B30BAA24A394B12CAC0EBD1EAA0DBB1D4F
:100DE00011968C9121503109D6011196281539059B
:100DF000F4F0F60180836D01DBCFB12CA12CA0CFE4
:100E0000F701B1937F01A150AACF9111B0CFD601C4
:100E1000942F50E302C05D9391509111FCCFC40E0A
:100E2000D11C40E0ACCF01E0BACF80E3DBCF62174A
:100E3000730731F4963388F4953311F4552369F030
:100E4000F6018083FD01842F90E2811108C0A40F78
:100E5000B11D1C9290E080E002CF81E3F1CF91932D
:100E60008150F3CF911183CF8ACF283008F027E04B
:100E70003327DA01990F311D87FD916000966105D6
:100E8000710539F432602E5F3D9330E32A95E1F726
:100E900008959F3F30F080387105610509F03C5F8F
:100EA0003C5F3D93913008F08068911DDF93CF93B4
:100EB0001F930F93FF92EF92192F987F9695E92F2A
:100EC00096959695E90FFF27EE53FF4F9927332705
:100ED000EE24FF24A701E70105900894079428F465
:100EE000360FE71EF81E491F511D660F771F881F1A
:100EF000991F0694A1F70590079428F4E70EF81EB1
:100F0000491F561FC11D770F881F991F661F069422
:100F1000A1F70590079428F4F80E491F561FC71F24
:100F2000D11D880F991F661F771F0694A1F70590A2
:100F3000079420F4490F561FC71FD81F990F661F2B
:100F4000771F881F0694A9F784911095177041F0B8
:100F5000D695C79557954795F794E7941A95C1F795
:100F6000E8E6F0E0689415901591359165919591BA
:100F700005907FE27395E118F10A430B560BC90BFC
:100F8000D009C0F7E10CF11E431F561FC91FD01D29
:100F90007EF4703311F48A95E6CFE894015030F076
:100FA000080F0AF40027021708F4202F2395022FB8
:100FB0007A3328F079E37D932A95E9F710C07D9381
:100FC0002A9589F6069497956795379517951794FE
:100FD000E118F10A430B560BC90BD00998F0239581
:100FE0007E9173957A3308F070E37C932013B8F701
:100FF0007E9170617D9330F0839571E37D9370E312
:101000002A95E1F71124EF90FF900F911F91CF9156
:10101000DF91992787FD909508952F923F924F92E7
:101020005F926F927F928F929F92AF92BF92CF9278
:10103000DF92EF92FF920F931F93CF93DF93CDB781
:10104000DEB7CA1BDB0B0FB6F894DEBF0FBECDBFF9
:1010500009942A88398848885F846E847D848C84CA
:101060009B84AA84B984C884DF80EE80FD800C81D3
:101070001B81AA81B981CE0FD11D0FB6F894DEBFB6
:101080000FBECDBFED010895EE0FFF1F0590F49147
:10109000E02D0994AEE0B0E0E0E5F8E00C941B0828
:1010A0000D891E898F89988D26E02C831A830983E8
:1010B00097FF02C080E090E801979E838D83AE0188
:1010C000455E5F4F698D7A8DCE0101960E947A0848
:1010D0004D815E8157FD0AC02F8138854217530725
:1010E0000CF49A01020F131FF80110822E96E4E00F
:1010F0000C943708ABE0B0E0E0E8F8E00C940D08A1
:101100007C013B018A01FC0117821682838181FFE9
:10111000C8C1CE0101965C01F7019381F30193FDF3
:10112000859193FF81913F01882309F453C1853252
:1011300039F493FD859193FF81913F01853229F424
:10114000B70190E00E946A0AE7CF912C212C312C44
:10115000FFE1F31538F08B3211F190F4803209F190
:10116000833229F137FC3CC020ED280F2A3050F59E
:1011700036FE20C08AE0989E200D1124922E06C0D3
:101180008D3291F0803371F7689430F8F30193FD5C
:10119000859193FF81913F018111DACF21C068943D
:1011A00031F8689432F8F2CF689433F8EFCF68944E
:1011B00034F8ECCFEAE02E9E200D1124222E689404
:1011C00035F8E4CF8E3229F436FC04C1689436F841
:1011D000DDCF8C3619F4689437F8D8CF8836B1F261
:1011E000982F9F7D95549330E0F08336A1F183379B
:1011F000C1F1833509F063C02801F2E04F0E511CA4
:10120000F801C080D180692D70E036FC02C06FEF1C
:101210007FEFC6010E94540A4C01689437F882019E
:101220000AC00C5F1F4FFFE3F98388248394912C3D
:101230006501E89437F833FE2DC0522C81149104D7
:1012400071F5552009F468CFB70180E290E00E9463
:101250006A0A5A94F6CFF801808189830E5F1F4F86
:10126000E4CF2801F2E04F0E511CF801C080D1807C
:10127000692D70E036FC02C06FEF7FEFC6010E945F
:101280005F0A4C018201D5CFB70180E290E00E9455
:101290006A0A2A942814190409F0B0F7CECFF6018F
:1012A00037FC859137FE81916F01B70190E00E9474
:1012B0006A0A51105A94F1E08F1A9108BFCF843610
:1012C00019F0893609F077C0F80137FE6BC06081EC
:1012D0007181828193810C5F1F4FF32DFF763F2E2A
:1012E00097FF09C090958095709561957F4F8F4FBE
:1012F0009F4F689437F82AE030E0A5010E949A0ACF
:10130000C82ECA188C2C432C36FE0CC0E89440F82A
:10131000C91440F434FE05C032FC03C0F32DFE7E38
:101320004F2E892C44FE95C0FE01EC0DF11D8081ED
:10133000803309F087C0242D297E422E842D8870A9
:10134000582E43FC95C040FE8FC09C2C821418F48C
:101350002C0C922C981844FE91C0B70180E390E0C9
:101360000E946A0A42FE09C088E790E041FE02C07E
:1013700088E590E0B7010E946A0AC91408F48AC09F
:10138000CA94D12C9FEFC91AD90ACA0CDB1CF601EA
:1013900082916F01B70190E00E946A0AAC14BD040B
:1013A000B1F74FCF60817181072E000C880B990B2C
:1013B0000E5F1F4F92CFD32CE894D4F82AE030E090
:1013C000853739F1232D297FD22E8F3601F148F44C
:1013D0008835A9F0F701868197812B96E2E10C947C
:1013E0002908803749F08837A9F7D4FE02C06894ED
:1013F000D2F820E130E00DC06894D4F8F6CF34FE86
:1014000003C0822F8660D82E20E132E002C028E09F
:1014100030E0F801D7FE0FC0608171818281938135
:101420000C5F1F4FA5010E949A0AC82ECA183D2CB6
:10143000E89437F867CF6081718190E080E00E5FBB
:101440001F4FF0CF42FC02C0839478CF83948394E3
:1014500075CF842D867809F471CFF6CFB70180E27D
:1014600090E00E946A0A83948214C0F3512C73CFD7
:10147000522C5818821408F46ECFF8CF842D867839
:1014800009F47BCF8BE241FE80E247FC8DE2B7019D
:1014900090E071CFB70180E390E00E946A0A9A94CD
:1014A0006CCF8FEF9FEF99CFFC010590615070409A
:1014B0000110D8F7809590958E0F9F1F0895FC011D
:1014C0006150704001900110D8F7809590958E0F73
:1014D0009F1F08950F931F93CF93DF93182F092F0A
:1014E000EB018B8181FD09C01FEF0FEF812F902F42
:1014F000DF91CF911F910F91089582FF14C02E812B
:101500003F818C819D81281739073CF4E881F9815E
:10151000CF0101969983888310838E819F810196E4
:101520009F838E83E3CFE885F985812F0995892BE9
:10153000A1F3DACFFA01AA27283051F1203181F145
:10154000E8946F936E7F6E5F7F4F8F4F9F4FAF4FCB
:10155000B1E03ED0B4E03CD0670F781F891F9A1FDE
:10156000A11D680F791F8A1F911DA11D6A0F711D92
:10157000811D911DA11D20D009F468943F912AE09E
:10158000269F11243019305D3193DEF6CF01089586
:10159000462F4770405D4193B3E00FD0C9F7F6CFB7
:1015A000462F4F70405D4A3318F0495D31FD40527F
:1015B000419302D0A9F7EACFB4E0A6959795879515
:1015C00077956795BA95C9F70097610571050895F4
:1015D0009B01AC010A2E06945795479537952795A0
:1015E000BA95C9F7620F731F841F951FA01D089538
:0415F000F894FFCF9D
:1015F400000000006602C601F301B30224020202E5
:0C160400160274203D20257320430000D6
:00000001FF
