:100000000C9475000C948A000C948A000C948A005D
:100010000C948A000C948A000C948A000C948A0038
:100020000C948A000C948A000C948A000C948A0028
:100030000C948A000C948A000C948A000C948A0018
:100040000C948A000C948A000C948A000C948A0008
:100050000C948A000C948A000C948A000C948A00F8
:100060000C948A000C948A0007634236B79BD8A789
:100070001A39685618AEBAAB558C1D3CB7CC5763CD
:10008000BD6DEDFD753EF6177231BF000000803F7B
:1000900008000000BE922449123EABAAAA2ABECD97
:1000A000CCCC4C3E00000080BEABAAAAAA3E000009
:1000B0000000BF000000803F000000000008417801
:1000C000D3BB4387D1133D190E3CC3BD4282AD2B38
:1000D0003E68EC8276BED98FE1A93E4C80EFFFBE30
:1000E00001C4FF7F3F000000000011241FBECFEFBE
:1000F000D8E0DEBFCDBF11E0A0E0B1E0EAE4F2E17C
:1001000002C005900D92AE30B107D9F70E94CA0126
:100110000C9423090C940000662311F02C9A01C062
:100120002C9880FF02C05D9A01C05D9881FF02C0DB
:100130005C9A01C05C9882FF02C05B9A01C05B9828
:1001400083FF02C05A9A01C05A98299A85E08A957D
:10015000F1F7299880E991E00197F1F708951F934D
:10016000182F82958F7060E00E948C00812F8F7015
:1001700060E00E948C001F9108951F93182F8295B4
:100180008F7061E00E948C00812F8F7061E00E946F
:100190008C001F9108950F931F93249A219A8AB17E
:1001A0008C638AB980E69AEE0197F1F783E060E00C
:1001B0000E948C0080E29EE40197F1F783E060E00A
:1001C0000E948C0008E512E0C8010197F1F783E076
:1001D00060E00E948C00C8010197F1F782E060E0C6
:1001E0000E948C0088E20E94AF008CE00E94AF0069
:1001F00081E00E94AF0080E49FE10197F1F786E083
:100200000E94AF001F910F9108954F925F926F92DD
:100210007F928F929F92AF92BF92CF92DF92EF9296
:10022000FF920F931F93DF93CF93CDB7DEB7649701
:100230000FB6F894DEBF0FBECDBF7B018C013A0133
:1002400029010E94C2026B01B601882777FD8095C3
:10025000982F0E94F5029B01AC01C801B7010E94D2
:1002600059024B015C0120E030E040E050E00E9488
:10027000BE02882324F4B7FAB094B7F8B094B20160
:10028000882777FD8095982F0E94F5029B01AC018D
:1002900060E070E080E291E40E9408047B018C0140
:1002A000C6016E010894C11CD11CB6014AE050E0A1
:1002B0000E94D505C801B7010E94C202882777FDB8
:1002C0008095982F0E94F5029B01AC01C501B401F5
:1002D0000E94A5030E94C202DC01CB018E01055FD2
:1002E0001F4FB8014AE050E00E94D50500D000D071
:1002F00000D0EDB7FEB73196ADB7BEB712967C927F
:100300006E92119780E091E093838283D582C482BC
:100310000E942706D3010D900020E9F71197A61936
:10032000B70993012A0F3B1F80E090E0EDB7FEB7BD
:1003300036960FB6F894FEBF0FBEEDBFA8010BC0F6
:10034000FA01E80FF91F6081662309F460E3F901FF
:1003500061939F0101968415950594F3860D971D71
:10036000A80FB91F1C9264960FB6F894DEBF0FBE9B
:10037000CDBFCF91DF911F910F91FF90EF90DF9054
:10038000CF90BF90AF909F908F907F906F905F9035
:100390004F9008954F925F926F927F928F929F92AB
:1003A000AF92BF92CF92DF92EF92FF920F931F9383
:1003B000DF93CF93CDB7DEB7A2970FB6F894DEBF29
:1003C0000FBECDBF239A2B9A80ED97E020E931E054
:1003D000F9013197F1F70197D9F71092C50087E637
:1003E0008093C40080E18093C1000E94CB002E0165
:1003F0000894411C511C45E0E42EF12CEC0EFD1E2E
:1004000030E4632E3FE1732E2FE0C22ED12CCC0EB0
:10041000DD1E94E1892E912C84E0A82E81E0B82E77
:100420002B98F20107C08091C00087FFFCCF80911C
:10043000C6008193EE15FF05B1F72B9A81E00E946B
:10044000AF00C3010197F1F769817A818B819C81AB
:10045000A70122E030E00E9405018DB79EB7089702
:100460000FB6F8949EBF0FBE8DBFEDB7FEB73196A5
:10047000ADB7BEB71296DC92CE921197938282826C
:10048000B582A482F782E6820E94F6058601EDB766
:10049000FEB738960FB6F894FEBF0FBEEDBF02C090
:1004A0000E94BD00D8018D918D01882309F4B8CF39
:1004B000F7CF5058BB27AA270ED00DC1FED030F081
:1004C00003D120F031F49F3F11F41EF4F3C00EF479
:1004D000E095E7FBE9C0E92F0FD180F3BA17620777
:1004E00073078407950718F071F49EF527C10EF481
:1004F000E0950B2EBA2FA02D0B01B90190010C0134
:10050000CA01A0011124FF27591B99F0593F50F44B
:10051000503E68F11A16F040A22F232F342F4427A3
:10052000585FF3CF469537952795A795F04053959B
:10053000C9F77EF41F16BA0B620B730B840BBAF06B
:100540009150A1F0FF0FBB1F661F771F881FC2F7D6
:100550000EC0BA0F621F731F841F48F487957795EA
:100560006795B795F7959E3F08F0B3CF9395880FA1
:1005700008F09927EE0F97958795089571D008F4A4
:1005800081E0089504D06894B111D9C00895BCD019
:1005900088F09F5790F0B92F9927B751A0F0D1F06C
:1005A000660F771F881F991F1AF0BA95C9F712C0F6
:1005B000B13081F0C3D0B1E00895C0C0672F782F6B
:1005C0008827B85F39F0B93FCCF386957795679562
:1005D000B395D9F73EF490958095709561957F4FCE
:1005E0008F4F9F4F0895E89409C097FB3EF4909574
:1005F0008095709561957F4F8F4F9F4F9923A9F0FC
:10060000F92F96E9BB279395F6958795779567958A
:10061000B795F111F8CFFAF4BB0F11F460FF1BC0CE
:100620006F5F7F4F8F4F9F4F16C0882311F096E961
:1006300011C0772321F09EE8872F762F05C066230F
:1006400071F096E8862F70E060E02AF09A95660FC8
:10065000771F881FDAF7880F9695879597F9089581
:10066000990F0008550FAA0BE0E8FEEF16161706C3
:10067000E807F907C0F012161306E407F50798F02B
:10068000621B730B840B950B39F40A2661F0232B44
:10069000242B252B21F408950A2609F4A140A695C0
:1006A0008FEF811D811D089597F99F6780E870E0A5
:1006B00060E008959FEF80EC089500240A941616D8
:1006C000170618060906089500240A941216130640
:1006D000140605060895092E0394000C11F48823CE
:1006E00052F0BB0F40F4BF2B11F460FF04C06F5FEA
:1006F0007F4F8F4F9F4F089557FD9058440F551FC0
:1007000059F05F3F71F04795880F97FB991F61F093
:100710009F3F79F087950895121613061406551F0A
:10072000F2CF4695F1DF08C0161617061806991F76
:10073000F1CF86957105610508940895E894BB276B
:1007400066277727CB0197F908950BD0C4CFB5DF83
:1007500028F0BADF18F0952309F0A6CFABCF11240B
:10076000EECFCADFA0F3959FD1F3950F50E0551F50
:10077000629FF001729FBB27F00DB11D639FAA27F6
:10078000F00DB11DAA1F649F6627B00DA11D661F45
:10079000829F2227B00DA11D621F739FB00DA11D66
:1007A000621F839FA00D611D221F749F3327A00D20
:1007B000611D231F849F600D211D822F762F6A2FBC
:1007C00011249F5750408AF0E1F088234AF0EE0F41
:1007D000FF1FBB1F661F771F881F91505040A9F74E
:1007E0009E3F510570F060CFAACF5F3FECF3983E7B
:1007F000DCF3869577956795B795F795E7959F5FB5
:10080000C1F7FE2B880F911D9695879597F908954E
:10081000FA01EE0FFF1F30962105310599F16115A0
:10082000710561F48038BFE39B0749F16894903803
:10083000810561F08038BFEF9B0741F0992342F5B5
:10084000FF3FE1053105210511F1E8940894E79592
:10085000D901AA2329F4AB2FBE2FF85FD0F310C023
:10086000FF5F70F4A695E0F7F73950F019F0FF3A02
:1008700038F49F779F930CD00F9007FC9058089501
:100880003EF018CF60E070E080E89FE308954FE706
:100890009F775F934F933F932F939ED02F913F91DC
:1008A0004F915F9152DF05C019F40EF0FDCE46CF97
:1008B00001CF2ADFC8F39638C0F707F80F92E89403
:1008C0002BE33AEA48EB5FE74EDF0F920F920F926D
:1008D0004DB75EB70F92C0D0E8E6F0E016D04F916A
:1008E0005F91EF91FF91E595EE1FFF1F49F0FE57D5
:1008F000E0684427EE0F441FFA95E1F74195550B48
:1009000032D00F9007FE26C00895DF93CF931F9338
:100910000F93FF92EF92DF927B018C01689405C0E8
:10092000DA2EEF011EDFFE01E894A59125913591A5
:1009300045915591AEF3EF01CEDDFE019701A8017F
:10094000DA9479F7DF90EF90FF900F911F91CF919C
:10095000DF9108959B01AC0160E070E080E89FE3C7
:10096000AEC0A2CE14C1D0DEE8F39923D9F3940F20
:10097000511DBBF39150504094F059F0882332F050
:10098000660F771F881F91505040C1F79E3F510559
:1009900044F7880F911D9695879597F908955F3FC5
:1009A000ACF0983E9CF0BB27869577956795B795F8
:1009B00008F4B1609395C1F7BB0F58F711F460FFCD
:1009C000E8CF6F5F7F4F8F4F9F4FE3CFB8CE0EF0D2
:1009D000DEC070CE689468CE97DEC8F39923D1F359
:1009E000C6F3DF93CF931F930F93FF92C92FDD2799
:1009F00088232AF02197660F771F881FDAF720E0F7
:100A000030E040E85FEB9FE3883920F0803E30F033
:100A100021968F774FDDE0E9F0E003C04BDDEDEB91
:100A2000F0E073DF8B01BE01EC01FB2E6F57710903
:100A30007595771F880B990BD8DD28E132E741E3E4
:100A40005FE38FDEAF2D9801AE01FF900F911F91F4
:100A5000CF91DF9140DD3FCEFA01DC01AA0FBB1F31
:100A60009B01AC01BF5728F4222733274427507835
:100A70001FC0B75188F4AB2F0024469537952795B2
:100A8000011CA395D2F3002069F0220F331F441FED
:100A9000B395DAF30DD00DCD61307105A0E88A076A
:100AA000B94630F49B01AC016627772788279078F8
:100AB000309621F0208331834283538308950CD0F4
:100AC0000ACE02DE40F0F9DD30F021F45F3F19F08C
:100AD000EBCD511134CEEECD0FDE98F39923C9F34F
:100AE0005523B1F3951B550BBB27AA276217730734
:100AF000840738F09F5F5F4F220F331F441FAA1FE8
:100B0000A9F333D00E2E3AF0E0E830D091505040A7
:100B1000E695001CCAF729D0FE2F27D0660F771F55
:100B2000881FBB1F261737074807AB07B0E809F037
:100B3000BB0B802DBF01FF2793585F4F2AF09E3FCC
:100B4000510568F0B1CDFBCD5F3FECF3983EDCF38F
:100B5000869577956795B795F7959F5FC9F7880F45
:100B6000911D9695879597F90895E1E0660F771F97
:100B7000881FBB1F621773078407BA0720F0621B28
:100B8000730B840BBA0BEE1F88F7E09508959F3F17
:100B900031F0915020F4879577956795B795880F38
:100BA000911D9695879597F90895FB019F01E8940B
:100BB0004230C4F04532B4F44A3029F497FB1EF4B5
:100BC000909581959F4F642F77270E94D808805D6C
:100BD0008A330CF0895D8193CB010097A1F716F45D
:100BE0005DE251931082C9010C943E08AEE0B0E082
:100BF000ECEFF5E00C94FA080D891E898F89988D29
:100C000097FF02C080E090E801979E838D831A834E
:100C1000098386E08C839E01255E3F4FCE010196BD
:100C2000698D7A8DA9010E944B064D815E8157FD29
:100C30000AC02F813885421753070CF49A01020F1E
:100C4000131FF80110822E96E4E00C941609AEE012
:100C5000B0E0EDE2F6E00C94FA080D891E8986E01A
:100C60008C831A8309838FEF9FE79E838D839E0178
:100C7000275E3F4FCE0101966F89788DA9010E94B2
:100C80004B062F813885020F131FF80110822E9614
:100C9000E4E00C941609ABE0B0E0E1E5F6E00C947A
:100CA000EC083C012B015A01FC011782168283815A
:100CB00081FD03C06FEF7FEFC6C19AE0892E1E0150
:100CC0000894211C311CF3012381F20123FD85913D
:100CD00023FF81912F01882309F4B2C1853239F4B1
:100CE00023FD859123FF81912F01853229F490E026
:100CF000B3010E944E08E7CF982FFF24EE249924D9
:100D0000FFE1FF15D0F09B3269F09C3228F490325D
:100D100059F0933291F40EC09D3249F0903369F44A
:100D200041E024C052E0F52A84E0F82A28C098E087
:100D3000F92A25C0E0E1FE2A22C0F7FC29C0892F4C
:100D400080538A3070F4F6FE05C0989C902C1124D4
:100D5000980E15C0E89CE02C1124E80EF0E2FF2A62
:100D60000EC09E3229F4F6FC6BC140E4F42A07C0A1
:100D70009C3619F450E8F52A02C0983649F4F2017D
:100D800023FD959123FF91912F01992309F0B8CF6D
:100D9000892F8554833018F08052833038F444E032
:100DA00050E0A40EB51E5FE359830FC0933631F0B7
:100DB000933779F0933509F056C020C0F501808152
:100DC000898342E050E0A40EB51E610101E010E00D
:100DD00012C0F501C080D180F6FC03C06FEF7FEF39
:100DE00002C0692D70E042E050E0A40EB51EC601BD
:100DF0000E9433088C015FE7F52214C0F501C08022
:100E0000D180F6FC03C06FEF7FEF02C0692D70E068
:100E100042E050E0A40EB51EC6010E9428088C01D5
:100E200050E8F52AF3FE07C01AC080E290E0B30153
:100E30000E944E08EA948E2D90E008171907A8F337
:100E40000EC0F601F7FC8591F7FE81916F0190E0ED
:100E5000B3010E944E08E110EA94015010400115C0
:100E6000110579F7EAC0943611F0993669F5F7FE65
:100E700008C0F501208131814281538184E090E0F6
:100E80000AC0F501808191819C01442737FD40957E
:100E9000542F82E090E0A80EB91E9FE6F92257FF7A
:100EA00009C050954095309521953F4F4F4F5F4F6A
:100EB000E0E8FE2ACA01B901A1012AE030E00E945F
:100EC0007A08D82ED21840C0953729F41F2D1F7EDE
:100ED0002AE030E01DC01F2D197F9F3661F090374A
:100EE00020F4983509F0ACC00FC0903739F098372E
:100EF00009F0A6C004C028E030E00AC0106114FD6B
:100F0000146020E130E004C014FD166020E132E0FE
:100F100017FF08C0F501608171818281938144E0EF
:100F200050E008C0F50180819181BC0180E090E033
:100F300042E050E0A40EB51EA1010E947A08D82E0E
:100F4000D2188FE7F82EF122F6FE0BC05EEFF522E5
:100F5000D91438F4F4FE07C0F2FC05C08FEEF82275
:100F600002C01D2D01C0192DF4FE0DC0FE01ED0DB6
:100F7000F11D8081803319F499EEF92208C01F5FBA
:100F8000F2FE05C003C08F2D867809F01F5F0F2D7C
:100F9000F3FC14C0F0FE0FC01E1510F09D2C0BC00A
:100FA0009D2C9E0C911A1E2D06C080E290E0B3018C
:100FB0000E944E081F5F1E15C0F304C01E1510F4DA
:100FC000E11A01C0EE2404FF0FC080E390E0B301FA
:100FD0000E944E0802FF1DC001FD03C088E790E09B
:100FE0000EC088E590E00BC0802F867891F001FF5D
:100FF00002C08BE201C080E2F7FC8DE290E0B30119
:101000000E944E0806C080E390E0B3010E944E08A3
:101010009A94D914C0F3DA94F101ED0DF11D808199
:1010200090E0B3010E944E08DD20A9F706C080E2DF
:1010300090E0B3010E944E08EA94EE20C1F743CE3F
:10104000F30166817781CB012B96E2E10C940809CC
:10105000FC010590615070400110D8F78095909583
:101060008E0F9F1F0895FC01615070400190011088
:10107000D8F7809590958E0F9F1F0895DC01FC0195
:10108000672F71917723E1F7329704C07C916D93BC
:1010900070836291AE17BF07C8F308950F931F9333
:1010A000CF93DF938C01EB018B8181FF1BC082FF0B
:1010B0000DC02E813F818C819D812817390764F4F2
:1010C000E881F9810193F983E88306C0E885F98511
:1010D000802F0995892B31F48E819F8101969F8302
:1010E0008E8302C00FEF1FEFC801DF91CF911F91D8
:1010F0000F910895FA01AA27283051F1203181F18A
:10110000E8946F936E7F6E5F7F4F8F4F9F4FAF4F0F
:10111000B1E03ED0B4E03CD0670F781F891F9A1F22
:10112000A11D680F791F8A1F911DA11D6A0F711DD6
:10113000811D911DA11D20D009F468943F912AE0E2
:10114000269F11243019305D3193DEF6CF010895CA
:10115000462F4770405D4193B3E00FD0C9F7F6CFFB
:10116000462F4F70405D4A3318F0495D31FD4052C3
:10117000419302D0A9F7EACFB4E0A6959795879559
:1011800077956795BA95C9F7009761057105089538
:101190009B01AC010A2E06945795479537952795E4
:1011A000BA95C9F7620F731F841F951FA01D08957C
:1011B000AA1BBB1B51E107C0AA1FBB1FA617B7077D
:1011C00010F0A61BB70B881F991F5A95A9F7809599
:1011D0009095BC01CD0108952F923F924F925F925E
:1011E0006F927F928F929F92AF92BF92CF92DF9237
:1011F000EF92FF920F931F93CF93DF93CDB7DEB79C
:10120000CA1BDB0B0FB6F894DEBF0FBECDBF09942F
:101210002A88398848885F846E847D848C849B8486
:10122000AA84B984C884DF80EE80FD800C811B8194
:10123000AA81B981CE0FD11D0FB6F894DEBF0FBEC3
:0A124000CDBFED010895F894FFCF33
:0E124A0025732E0074203D20257320430000E4
:00000001FF
